:020000040800F2
:1000000000100020E9480008394900083949000873
:1000100000000000000000000000000000000000E0
:100020000000000000000000000000003949000846
:10003000000000000000000039490008734000087B
:100040003949000839490008394900083949000888
:1000500039490008094100081941000829410008F0
:10006000000000003949000839490008000000007C
:1000700039490008BD3B0008D53B000800000000DE
:10008000DD3B00083949000800000000F53B00088E
:10009000000000000D3C0008253C0008394900081C
:1000A000000000003949000800000000BD470008BA
:1000B000D54700080000000000000000000000001C
:1000C00005B508461A460ABDC20D4002400A012481
:1000D000E4052043FF2AD2B200D94042013AFE2A69
:1000E00001D27E3A70470028204600D540427E3A31
:1000F000920080327047C40FE40704D5002D00D071
:100100000130404203D4013A001812D0FBD58132AD
:1001100001D1803005D2803003D2002D0FD04000B5
:10012000013AFE2A06DA013207DD400AD205104301
:1001300020437047FF20C005FAE7002070470506FE
:10014000EDD1400A8002EBE783B20C146343041440
:100150008DB26C431B1984B26C432504240C1B190B
:10016000001409144843C002D9060D435911401820
:1001700070474200120E01D0FF2A01D1C00DC00508
:100180004A00120E01D0FF2A01D1C90DC905012272
:10019000414009D4414000D55242884202DC00DB94
:1001A00000225242101E704701434918F8D000281F
:1001B000F8DAF6E7002110B5FFF786FF1300823367
:1001C00010D40A44173A07DB072A19DDC117C943BF
:1001D0000120C007484010BD5242202A00DB2022E7
:1001E000104110BD002010BD002110B5FFF76CFFBD
:1001F0000A440100EED4173AEEDBC143082AE9DCD9
:10020000904010BD002230B5002906D5CD0705432A
:100210004808013A10E0002230B505000D4315D022
:10022000CD170C16AC4205D1C901440E2143C001C3
:100230000732F6E70500080052423D3204E0002193
:1002400030B51D22521A0025FFF755FF30BD0021A1
:1002500030B50028F5DA1E22521AC5074008F3E728
:100260000025A4460DE0002902DC05E0002A03DA9F
:10027000891B7F42121901E08919121B64466743EA
:10028000C01B10CB640800D2013506462E410F4634
:100290002F4164087047C0B5FFF7E2FFFFF7E6FFA4
:1002A000FCD386138F13D2105643574364466743DB
:1002B00036133F13C01B8919C0BDC0B5FFF7D0FF6F
:1002C000FFF7D1FFFCD3002902DC8919121B01E0E2
:1002D000891B121976106410F5D1EDE7114A5140CF
:1002E00070B5C4174200120E55D0FF2A56D0CD1754
:1002F0004B001B0E55D0FF2B56D00B4E30403140DB
:1003000001363043314360406940001B491B9D1A50
:10031000D41A11D41E2C0CDA203513000A00AA407E
:1003200021410FE000000080FFFF7F000022080055
:100330000AE01300002207E01E2DF7DA2034020045
:10034000A2402841401819D0C10F03D0C0435242E7
:1003500000D10130B619B04204D292184041013B9D
:10036000B042FAD3400802D30130002A09D0FE2B54
:100370000AD2C9070844DB05184470BD002AFCD026
:10038000E2E740084000F2E701DAC80770BD080262
:10039000FF30C00570BD203A1219A8E712022244AE
:1003A000A5E7203B5B19A8E71B022B44A5E7C04645
:1003B00080B502464A40D20FD20796464000490017
:1003C000020E3DD0FF2A3CD00B0E3CD0FF2B3BD081
:1003D000D718803F00020902400A490A4218944691
:1003E000C209CB095A434843920C02D3002800D4D7
:1003F00001324302C00D520280186044C10D0ED17B
:10040000FE2F2BD25B0001D305D001300137FF0551
:100410003844704480BD013040084000F6E70137A1
:10042000FE2F13D2400802D30130002B05D0FF1954
:100430000137BF053844704480BD40084000F6E7EE
:10044000103A1202C0E7103B1B02C1E712DA013773
:100450000ED10230C00D03280AD105E00ADA0137B7
:1004600006D10130C00D03D00120C005704480BD0D
:10047000704680BDFF20C005704480BD70B501246A
:10048000E4054A02520A2243930C25A5EB5C550170
:100490005D43AD13EE127643AD1B5D431E026D133B
:1004A00001356D10751BC60DF3B24002400A2043A2
:1004B000C90D4E40360AF607C9B2002930D0FF29CF
:1004C0002CD0002B39D0FF2B2AD05B1A7D33010AA8
:1004D0006943090CC00314004C43041BA4126C4371
:1004E0002414490309190C0F08D105310C090FD345
:1004F000C90880025143401A0AD408E00133093187
:100500004C0905D3090940025143401A00D4013473
:10051000FE2B09D2D9056018801970BDFF2B0CD1B4
:10052000FF20C005304370BDFADA591C05D1610EB9
:1005300003D30120C005304370BD300070BDC046FC
:10054000FCF5EDE7E0DAD5CFCAC5C1BCB8B4B0ACB4
:10055000A9A5A29F9C999694918E8C8A8785838168
:1005600010B441003AD20902490A0122D205891881
:10057000C20D3AD0FF2A36D07D32521000D3490046
:100580001AA44B0DE45CC809604360430013604348
:1005900040132402241AAA3420004043C00B0B0A43
:1005A0005843001360434015241A6343DB0B1800C3
:1005B00040434902081A40114443DB01E013103064
:1005C0008011034406D31C46644164430904091B9B
:1005D00000D40133D205D01810BC7047090E04D0E6
:1005E000C017C005F8E7C00DFBE7C00FC007F3E771
:1005F000F1DAC9BBB0A69E97918B8682F0B5012433
:10060000E407634001E0C046F0B50C0DCF0F661E55
:100610003605891B640503D3C943404200D3013129
:10062000640D03D0661CF60A07D0E41B00207F008F
:10063000791C89078912803C24031D0DDF0F6E1E73
:1006400036059B1B6D0503D3DB43524200D30133B8
:100650006D0D03D06E1CF60A07D0ED1B00227F0043
:100660007B1C9B079B12803D2D032F1B661B58D4C0
:10067000A446202E46DA20371400BC401D00BD40A1
:10068000F24033412A4380185941CB0F05D0C9436A
:10069000C043002264425041514162464D0D28D171
:1006A0000D0D07D100281FD0241940414941013ABE
:1006B0000D0DF9D0640006D3013000D30131002CB8
:1006C00001D140084000013A0BD4941CE40A04D143
:1006D00012051144DB071944F0BDD907204B19431B
:1006E00000E0D9070020F0BD0029DDD1002CDBD1CE
:1006F000F0BD0132C6074008CD0728434908002E47
:10070000E1D0D9E73C2E29DA203E40371400BC4026
:1007100000D00124F24014431A00BB401C43D317FD
:10072000ACE7AC46202F08DA20360400B4400D00B8
:10073000B540F84039412843A5E73C2F0CDA203F6B
:1007400040360400B44000D00124F84004430800BF
:10075000B1400C43C117EAE710001900002494E7E8
:100760000000F07FF0B50C0D661E3605891BE60A09
:100770006405640D02D0651CED0A04D0002001213F
:100780000905803C2403A4461C0D671E3F05DB1BA6
:10079000E70A6405640D02D0651CED0A04D000224E
:1007A00001231B05803C24037740644497B484B242
:1007B00096B27443070C7E43150C6F4380B26843B6
:1007C000361802D3012000043F183004350C0019FC
:1007D0007D41844688B29AB250430C0C62431F0C90
:1007E0007C438EB27E43921902D301263604A419AB
:1007F0001604170C3618674101BC81B29AB25143F6
:10080000040C62431B0C5C4380B25843121802D3A1
:100810000120000424181004130C401863412D1803
:100820005E410020474106BC88B293B258430C0C8D
:100830006343120C544389B251435B1802D3012124
:100840000904641819041A0C091862416D185641FC
:100850000020474118BCF902720D1143F0026A0DE5
:100860001043ED020A0D03D16D1940414941013B8E
:10087000124E9B1B7600B3420ED26D0007D301309F
:10088000002671416646354301D1400840001B05F2
:10089000C918E4072144F0BD0BDA013306D1013059
:1008A00004D101314F0D01D04908F2E7E1070020E2
:1008B000F0BD013631050020EBE70000FF0300002A
:1008C000F0B51C0D671E3F05DB1BE70A6405640DD0
:1008D00002D0661CF60A04D0002201231B05803CCE
:1008E0002403CE0FF619B44649004F0D02D07E1CEA
:1008F000F60A03D000200021403F3F033E1BB60014
:10090000B444013F7F05C91B4908DC0BA94D2C5D90
:100910001D026543AD13EE127643AD1B6543E60140
:10092000AD1301356D10761B9C02950D2543754363
:10093000ED137543AD1301356D10F603761B0CB442
:10094000CC02450D2C43A2B2B3B25A43270C7B43D1
:10095000350C6F43A4B26C431B1902D30124240449
:100960003F191C041D0CA4187D4124196D41009AE7
:1009700091B2ACB26143170C7C432B0C5F4392B233
:100980005A43A41802D301221204BF182204230CD4
:1009900052187B41019C6C431B19520ED9010A432A
:1009A0004401A01A81B2B2B2514303145A43360C27
:1009B000734387B27743D617D21900277E41360496
:1009C0009B191704160C7F185E417316ED18F3017E
:1009D000002680337541A90F06D16400690AE80535
:1009E0005B0A184309D22FE00422944480337541F6
:1009F000A90AA8059B0A184326D34041494124046B
:100A0000009A019B0D005543641B4343E41A95B2C1
:100A100086B27543170C7E43030C5F4392B25A4370
:100A2000B61802D301221204BF183204330C521933
:100A30007B4152429C41002C02D4002201305141A2
:100A40004008CA071043490802B06246D70792100F
:100A5000594BD218594B9A4203D212058918C91919
:100A6000F0BD0020002A01DC3900F0BD013319057A
:100A7000F5E707DA002107E0C90FC907520D03D0D7
:100A8000C91201E04E490905002070474A00F3D21F
:100A9000520D013A494B9A42EBD2F0B51405091BAD
:100AA000520801D3001849419B08D21812059446F8
:100AB00042A44A0CA25C0B09534353431B135343F8
:100AC0005B131202D21A13005B435B0B4C086343A7
:100AD000DB135343DB1501335B10D21A130CD21A0C
:100AE00013005B438902840D21438DB29EB275438E
:100AF0000F0C7E431B0C5F438CB25C43361902D350
:100B0000012424043F193404330C64197B419D01F2
:100B1000A40E2C432034A5B25543241454432D0C69
:100B20006419A411D203121B95B28EB27543170C2F
:100B30007E430C0C674393B26343F61802D3012340
:100B40001B04FF183304340C5B197C41DB1864412F
:100B5000DB18002363419EB276439DB21F0C7D4398
:100B60007F436C04ED0BA4197D4106028F08361BF0
:100B7000AF417D07F6086E41B4B295B26C433714AD
:100B80007D43120C5743B6B25643EA17AD190026FF
:100B900072411204BF182E042A0C36197A41083209
:100BA00052111BD29D0A9C05D1171019694161444D
:100BB000F0BD000020050008FD030000FE07000056
:100BC000FF070000F8EBDFD6CDC5BEB8B2ADA8A4D4
:100BD000A09C9995928F8D8A8885838152415D0A68
:100BE000DC05D11714194D412B006343A6B276439F
:100BF000A2B2270C7A437F435104D20B89197A4160
:100C0000D218D21880054942904102D40023013401
:100C10005D4160086908ED0728436144F0BDD0B527
:100C2000B34F4C00640D01D0BC4202D10020090D2D
:100C300009055C00640D01D0BC4202D100221B0DED
:100C40001B0501264B400CD44B4000D576429942FF
:100C500003D1904203D801D3002600DC7642301E37
:100C6000D0BD0B43DB1803431343F5D00029F6DA5C
:100C7000F4E744464D4656465F46F0B47047F0BC34
:100C8000A046A946B246BB467047624618CA94467B
:100C90005A46002A20DB04E0624618CA944600291E
:100CA0001ADAC01861415B463B415C46B44052468B
:100CB000FA40224344464D4662416B419046994674
:100CC0002B46B3403D41FC401C4352465B46A2418B
:100CD000AB4192469B467047C01AA1414B463B41EF
:100CE0004C46B4404246FA40224354465D46624177
:100CF0006B4192469B462B46B3403D41FC401C4312
:100D000042464B46A241AB4190469946704700206F
:100D100000217047002200B5203200F02AF80800B8
:100D200000BD002200B5203200F030F8080000BD00
:100D3000002100B500F004F81EE00021C315E6D440
:100D400010B58C46C3174000020E0AD0FF2A0CD003
:100D5000511E7F3A0906401A5840C01A0111000777
:100D60001FE000200100030010BDD843D94310BD8F
:100D7000002200B500F00CF8CA179A4200D100BD5D
:100D8000D8430121C907414000BD00220B15BED444
:100D900010B5944600F0B8F81414013400DA0021BC
:100DA000CB176244343A0CD40C2A07DA0400914081
:100DB000904052422032D440214310BDD843D94301
:100DC00010BD203207D40C469440524220321141CB
:100DD000D040204310BD0800C917203203D452422E
:100DE0002032104110BD1800190010BDC30FDB07E1
:100DF00041000A0E07D0FF2A08D009093D4A891888
:100E00001943400770471900002070473A49C91834
:100E1000FAE74A00520D394BD21A13DDFF2A1EDAC7
:100E2000D205CB0FDB071A43C300400F0903490A61
:100E3000084310435B0001D301D0013070474308E1
:100E4000FBD2704702D0C80FC00770470A031213C5
:100E50000132F8D1420F072AF5D1012200E0FF222A
:100E6000C80F00028018C005704700210A00002149
:100E700004E000210A00C11703E00022002305E07E
:100E80000022CB1758405940C01A994130B51C4C2C
:100E9000A21A002903D1010010D00020203A4C15DD
:100EA00012D104D2013A001849414C0DFAD3154C25
:100EB000A24204D212058918DB07C91830BDD243FB
:100EC000520D00200021F5E703D4013A00184941F2
:100ED000FBD50B324405C00A4D052843C90A6400FE
:100EE00003D0002460416141E1E7E0D34408F8E722
:100EF000FF070000000000380000F07F80030000C2
:100F000032040000FE0700000A0DCC0F531E1B0523
:100F1000C91A520503D3C943404200D30131520DCF
:100F200003D0531CDB0A07D0121B00206400611C95
:100F300089078912803A1203014BD21A70470000C8
:100F4000FF03000002B4714649084900095C4900EA
:100F50008E4402BC7047C046002243088B4274D3C3
:100F600003098B425FD3030A8B4244D3030B8B42AA
:100F700028D3030C8B420DD3FF22090212BA030CB3
:100F80008B4202D31212090265D0030B8B4219D394
:100F900000E0090AC30B8B4201D3CB03C01A5241B4
:100FA000830B8B4201D38B03C01A5241430B8B42FC
:100FB00001D34B03C01A5241030B8B4201D30B03E5
:100FC000C01A5241C30A8B4201D3CB02C01A52410C
:100FD000830A8B4201D38B02C01A5241430A8B42CF
:100FE00001D34B02C01A5241030A8B4201D30B02B8
:100FF000C01A5241CDD2C3098B4201D3CB01C01AD2
:10100000524183098B4201D38B01C01A52414309DB
:101010008B4201D34B01C01A524103098B4201D3C9
:101020000B01C01A5241C3088B4201D3CB00C01A36
:10103000524183088B4201D38B00C01A52414308AE
:101040008B4201D34B00C01A5241411A00D20146D3
:10105000524110467047FFE701B5002000F006F846
:1010600002BDC0460029F7D076E770477047C046FA
:10107000844608006146FFE71FB503F023FC002803
:1010800001D40021C8421FBD10B503F013FC40423B
:10109000013010BD10B503F015FC002801DB002065
:1010A00010BD012010BDC04610B503F00BFC002898
:1010B00001DD002010BD012010BDC04610B503F0B9
:1010C000FDFB002801DC002010BD012010BDC04642
:1010D00010B503F0F3FB002801DA002010BD012059
:1010E00010BDC0461C2101231B04984201D3000CF3
:1010F00010391B0A984201D3000A08391B0998428B
:1011000001D30009043902A2105C40187047C046A0
:1011100004030202010101010000000000000000C0
:1011200010B5064C2378002B07D1054B002B02D0BD
:10113000044800E000BF0123237010BD9C00002084
:1011400000000000F0550008044B10B5002B03D040
:101150000349044800E000BF10BDC0460000000085
:10116000A0000020F0550008084B10B51B68002BAC
:101170000BD003F079FD064B1B68C01AFA239B00C5
:10118000984202D90122034B1A6010BD6C01002065
:10119000BC000020B80000201D4B10B51B68002BC0
:1011A00014D103F061FD040003F05EFDFA22194939
:1011B00052000B68C01A184B904204D9F43AFF3A17
:1011C0001A600C6010BD1A680132F9E7134C144A1A
:1011D0002368126801332360002A03D0012B01D158
:1011E000023323602368042B09DD00232360226877
:1011F0000C4B92000620D15803F000FCE2E7042BD0
:10120000F5D1072003F0F2FC0128F0D1EDE7C0464C
:101210006C010020C0000020C400002074010020E8
:10122000000000200400002030B5A820A7B003F083
:10123000DFFA0400364902F00BFD364D042320008E
:10124000052201212C6002F025FB286802221421CE
:1012500002F036FC082300220121286802F058FC25
:10126000286802F049FA2C4803F08CFB082003F0B0
:1012700079FB0121152003F021FC0121162003F048
:101280001DFC0121172003F019FC0121052003F0AA
:1012900015FC0021052003F06DFC0121062003F060
:1012A0000DFC0021072003F009FC0021062003F0BB
:1012B000A5FB0121080003F001FC0021012003F03F
:1012C00059FC0021022003F0F9FB0021032003F068
:1012D000F5FB002301A81A00190000F0A4FB0F4C35
:1012E000942201A9200004F02FF920000C4900F0FD
:1012F000DBFB20000B4900F0D9FB20000A4900F07D
:10130000D9FB2000094900F0D3FB27B030BDC0460F
:1013100000200040C800002030750000CC000020F4
:10132000991100088D15000869110008951300082F
:1013300010B50024134B210015201C6003F05EFB48
:101340002100162003F05AFB2100172003F056FB62
:101350002100012003F00EFC0B482200082301218C
:10136000006802F0D5FB2100052003F003FC2100FA
:10137000062003F043FB054B05481C6003F002FB0D
:1013800010BDC0466C010020C8000020B80000203D
:1013900030750000054B10B51B68002B05D0044BC1
:1013A0001B68002B01D0FFF7C3FF10BD6C010020AC
:1013B000B800002070B50D001400060001001520D3
:1013C00003F01CFB2900162003F018FB2100172056
:1013D00003F014FBFA2003F04BFC0021152003F06E
:1013E0000DFB0021162003F009FB0021172003F05C
:1013F00005FBFA2003F03CFC3100152003F0FEFA57
:101400002900162003F0FAFA2100172003F0F6FA5B
:10141000FA2003F02DFC0021152003F0EFFA002143
:10142000162003F0EBFA0021172003F0E7FA70BD55
:10143000084B10B51868002806D0142200211000AF
:101440001960FFF7B7FF10BD012214211A600200D6
:10145000F7E7C04668010020F7B52349041CFFF7F1
:101460002DFE002800D0204C2049201CFEF7A0FFB4
:10147000211C051C1E48FEF731FF011C281CFEF72D
:10148000FDFF1C49051CFFF705FE041E29D11A4F5C
:10149000A300FE58300003F0B3FE291C0190FFF7B3
:1014A0000DFE002818D0291C0198FEF717FF631EB7
:1014B0009B00051CD859301A03F0A2FE011C281C01
:1014C000FEF7DCFF051C7D20001B03F099FE011CCC
:1014D000281CFEF705FFFEBD0134B52CD8D1074806
:1014E000F9E70748F7E7C04600404E4500401C4674
:1014F00000504E4500C004441C56000800007AC449
:101500000000FA42F0B5002489B0032003F06EFA1F
:1015100003AEA300F0502C20FA211B4FFF30BB6814
:10152000890001937D6801356843FFF715FD0022AE
:10153000019B0293BB6801930299019B99421FD2C0
:101540000299019BEB1A5B18D218019B02939042FF
:10155000F0D80134052CD8D133000022196858681E
:101560000132814201DD186059600433A242F5D195
:10157000541E022AF0D10323B068584309B0F0BDCD
:10158000029B01995B1ADFE710E000E070B5194D8E
:101590002C68002C02D0FFF7CBFE70BDFFF7B2FF26
:1015A000154B984222DD03F05FFB144B1860144B7F
:1015B0001B68002B05D0220014212000FFF7FAFE43
:1015C000EBE701240F4B210005201C602C6003F089
:1015D000D1FA2100200003F0CDFA0B4A0B4B126820
:1015E00006209200D15803F009FAD6E72200210024
:1015F0001420E3E76C01002070170000BC000020FD
:101600006801002070010020740100200400002007
:10161000F0B500248DB0022003F0E8F903AEA3007A
:10162000F050FA21C7201C4F8900BB6801937D68E8
:1016300001356843FFF790FC0022019B0293BB68D1
:1016400001930299019B994221D20299019BEB1AC5
:101650005B18D218019B02939042F0D80134092CF8
:10166000D9D133000022196858680132814201DD66
:10167000186059600433A242F5D1541E022AF0D1F9
:10168000306903F0BDFDFFF7E7FE0DB0F0BD029B32
:1016900001995B1ADDE7C04610E000E0012170B55A
:1016A000080003F067FAFFF7B3FF03F089FD294A4A
:1016B00003001060284A1068002841D16333A92B29
:1016C0003ED8264B1C68002C04D002001421FFF7E2
:1016D00071FE35E0FFF716FF214B984235DD0720FC
:1016E00003F084FA1F4D012804D12B68032B01DD80
:1016F00003232B600121052003F03CFA2B681A4CD0
:101700009B001959062003F079F9C82003F0B0FABC
:101710000021062003F072F9C82003F0A9FA2B6813
:1017200006209B00195903F069F9C82003F0A0FABC
:101730000021062003F062F90021052003F01AFAC7
:101740000021012003F016FA70BD220021001420B0
:10175000BDE7C046640100206C0100206801002044
:1017600070170000740100200400002070B5764856
:1017700000F077FA754C2368002B0FDD03F074FA44
:10178000734B1B68C01AFA235B00984206D9236882
:10179000022B5BD1FFF782FF002323606D4C23688F
:1017A000002B00D19DE0072003F020FA01280AD188
:1017B000694B1A68032A06DD03221A60674B05305D
:1017C000D96803F01BF9664B1B68002B0FD003F0A0
:1017D0004BFA6421FFF7C0FB0A21FFF743FC1220FC
:1017E000401A03F0CFF8C821062003F007F9FFF7ED
:1017F0000FFF03F0E5FC5B4B5B4D186003006333A8
:10180000BC2B44D90022544B06201A60534B196854
:1018100003F0F4F8554808232A680121006802F013
:1018200077F9FFF76FFE524B1A68012A5AD1514AD5
:10183000904244DD02221A602268002A64D01868AF
:1018400003284ED8FFF77EFB606D6F752368032B6E
:1018500017D1494B186800280FD1484B19684A42E4
:101860004A411A603C4B14221860002903D1080039
:10187000FFF7A0FD90E71100FAE700221421100005
:10188000F6E72368052B87D1FFF7D2FD84E7FF2316
:10189000452812DC2B68002B08D12A28BADD312814
:1018A0000ADD0B2332384343233306E0312803DDBE
:1018B000012BF6D13328F4DC00232B60AAE7304A51
:1018C0009042B9DC00241C6003F0CEF92D4B1B685C
:1018D000C01AFA239B00984201D21F4B1C60FFF7ED
:1018E00027FD70BD022A09D1274A904201DD03225B
:1018F000A1E7264A90429FDC01229CE7032A9BD164
:10190000234A904296DD97E70021152003F076F8F0
:101910000021162003F072F80021172003F06EF862
:10192000DFE71421F1E71421152003F067F81421F3
:10193000EFE71421152003F061F81421162003F0BD
:101940005DF81421E9E7C046CC000020C400002067
:10195000C00000206C010020740100200400002061
:10196000B80000206401002060010020C8000020B1
:1019700070010020BB1B0000680100200000002057
:10198000A8160000BC000020DB1E00002C1A00007E
:101990004C1D000010B5024800F004F810BDC04610
:1019A000CC00002001235B420360333343605F338C
:1019B000FF3383609133FF33C3600200C833036198
:1019C00000230121743243618361C3610362436276
:1019D0008362C362036343638363C36303644364D7
:1019E0008364C364036543658365C36503664366B7
:1019F0008366C366036713809370021D8367043296
:101A0000C3679367D36780321160536093607047F8
:101A100010B504000800110001225A4020606261E4
:101A200003F04CF810BD70B515000122040001262A
:101A300052420260333242605F32FF328260913242
:101A4000FF32C260C832026122000020B34074320B
:101A50006061A061E06120626062A062E062206378
:101A60006063A063E06320646064A064E064206558
:101A70006065A065E06520666066A066E066206738
:101A800010809070221DA0670432E0679067D067D5
:101A90008032166050609060C9B22000DAB22B002C
:101AA000FFF7B6FF200070BD416270478164704748
:101AB0004165704701667047030070B50025083323
:101AC00005670400DD6703F0CFF8231D7434D86781
:101AD000257070BD70B504000D0003F0C5F823003B
:101AE000E0677533002D04D06268002A01DA012214
:101AF0001A70220076321178A9420AD1A26F801A98
:101B00006268D11752184A40904200D31D7018786D
:101B100070BDA0671570FAE770B5061DC36F0400AD
:101B2000F26F006F0D009A1A072800D997E0FFF7AF
:101B300009FA04263B429696748D210074310B7885
:101B4000002B08D12369934205D2E36E002B02D00B
:101B500001220A709847002D10D001232367E36FFC
:101B60000022F36723000833DA67A369934200D0A9
:101B70009847E369002B01D0206A984770BD00297F
:101B800003D102222267F367F8E7E3689342F5D2B4
:101B9000A36C002B00D09847E36C002B01D0206D84
:101BA000984706232367E9E722000832D36F013301
:101BB000D3670323F6E7002901D00122E2E72300DF
:101BC000A1680833DB6F914204D922008832126881
:101BD0009A42D3D1012B0CD1636A002B00D09847D5
:101BE000A36A002B01D0E06A98472000FFF764FF4A
:101BF000C4E7022B08D1236B002B00D09847636BFE
:101C0000002BF2D0A06BEFE7E36B002B00D09847DE
:101C1000236C002BE9D0606CE6E7002901D1072393
:101C2000C0E7250090352A689B1A22008C32126882
:101C30009342A3D3236E002B00D09847636E002BF2
:101C400001D0A06E9847E36F2B6097E7636D002B80
:101C500000D09847A36D002BC7D0E06DC4E70023E8
:101C6000A0E710B50400006800280DDB02F0BEFFFD
:101C70006169091A4B4259412000C9B2FFF72AFF96
:101C800001002000FFF748FF10BD7047104B70B5F2
:101C900019680500002901D1012070BDFA208000DB
:101CA000FFF75AF90B4C01002068FFF755F900F0D7
:101CB0004FFB041EF0D1032DEED8020001202900B5
:101CC000404200F0FFFA044B20001D60E5E7C046EB
:101CD00018000020300000201C00002010B500205B
:101CE000FFF7D4FF041E03D1FFF7CFFF200010BD84
:101CF0000124FBE7034A0449136809685B18136071
:101D00007047C0467801002018000020014B186879
:101D10007047C046780100200422036870B59968B6
:101D20000400114201D1002070BD9968114206D013
:101D30009A68D20703D5102299680A439A60FFF780
:101D4000E5FF0426050023689B683342EBD0FFF7CC
:101D5000DDFF401B0228F6D910230120A26B13439C
:101D6000A363E36B0343E363DEE70122036870B51B
:101D700099680400114201D1002070BD05219D68C1
:101D80000D40012D18D19A68AA439A6002221A6068
:101D9000FFF7BCFF060023689B682B42ECD0FFF7DF
:101DA000B5FF801B0228F6D91023A26B1343A3634F
:101DB000E36B2B43E36306E01023816B0B438363E8
:101DC000C36B1A43C2630120D7E70000002213B59A
:101DD00003000192026801209168014201D00020B5
:101DE00016BD94680D490C4207D01022996B0A4326
:101DF0009A63DA6B0243DA63F2E79368084918439F
:101E0000084B90601868FFF7A7F80190019B002B22
:101E1000E5D0019B013B0193F8E7C0461500008027
:101E200040420F003000002070B5041E00D17FE05A
:101E3000836B002B05D102003432C363137001F0B1
:101E4000BBFFA36BDB0600D574E0226893685B07D9
:101E500000D56FE0A16B3A4B19400633FF330B43BB
:101E6000A3639368DB070BD41821D3688B43A16865
:101E70000B43D360136961681B011B090B4313619A
:101E8000D36830490B40D360A17E237E48039B0377
:101E90000343E0680343601DC07F40000343A06A22
:101EA0000138451EA841000303432069023845421A
:101EB000684180000343E07E012804D1002925D138
:101EC000802149020B43C220E169FF30814202D0E8
:101ED000206A01430B43D1681943D160E16A0729A5
:101EE00006D807255069A8435061506901435161E4
:101EF000D26815490A409A4210D100200323E063BA
:101F0000A26B9A43023B1343A36370BD2021A56BD0
:101F10002943A163E16B0843E063D4E71223A26B7A
:101F20009A43023B1343A3630123E26B1343E3632E
:101F30000120EAE71023A26B1343A363F8E7C0462E
:101F4000FDFEFFFF19C2FEFFE7FF3FC370B50400AF
:101F50000125002843D00223826B13438363FFF7DC
:101F6000DBFE051E07D12000FFF7FFFE050001285C
:101F700001D00123A36380221A4B5203196B0A4339
:101F80001A631A6B18490A401A63012D24D09E2146
:101F9000236820005A688A435A601960DA68134936
:101FA0000A400721DA601A69120112091A615A6996
:101FB0008A435A611A6A0E490A401A629A6A0D499E
:101FC0000A409A620C4A0D4913680B40136001F0F5
:101FD00015FF0023E363A363002334342370280038
:101FE00070BDC04600100240FFFFEFFF00823EC3FD
:101FF00000F000F000E4FFFF08270140FFFF3FFF73
:10200000F8B5042605680400AB680220334219D1F4
:10201000270034373B78012B14D0012320003B707C
:10202000FFF7D4FE00280DD1A26B074B1A40802386
:102030005B001343A3631C23E06338702B60AB6821
:102040001E43AE60F8BDC046FEF0FFFF70B506004F
:102050003436337804000220012B12D001252000F1
:102060003570FFF759FE002809D12000FFF77DFEEB
:10207000002804D1A36B034A13401D43A56300232A
:10208000337070BDFEFEFFFFF8B5466904000D0019
:10209000082E0DD003680120DB680C26034207D010
:1020A0002023A26B34341343636000232370F8BDF4
:1020B000FFF72CFE070023681A68164222D0802200
:1020C000A16B92000A43A263C022D9681201114297
:1020D00013D1A27E002A10D11A6812070DD59A6872
:1020E000520722D40C215A688A435A60A16B154AC0
:1020F00011400432FF320A43A263227E002A1DD01F
:102100000020D4E76A1CD7D0002D08D10423A26B8D
:10211000343413436360002303202370C7E7FFF7C1
:10212000F5FDC01BA842C6D9F0E72022A16B0A43E7
:10213000A2630122E16B0A43E263DEE70C221A602C
:10214000DEE7C046FEFEFFFF0368186C7047000024
:10215000F7B50023040001933434237806000220ED
:10216000012B26D0013820703568AB685B074ED450
:102170000A684F681300BC46274F90400B3BBC4594
:1021800036D0AF6A3843A862F06A07280CD9072016
:102190006E6989680640B14206D06E690140864387
:1021A0006E616E6931436961012B03D90020002300
:1021B0002370FEBD13000B3B5D1EAB41802517490C
:1021C0005B429B0D08689B052D045B1903430B6064
:1021D0000B2AEBD1124B13491868FEF7BDFE0A23F8
:1021E00043430193019B002BE0D0019B013BF8E7A7
:1021F000AA6A8243AA62012BD8D8581E8341074A93
:10220000094811689B051B180B401360CEE720237B
:10221000B26B1343B363CAE7011000000827014003
:102220003000002040420F00FFFF7FFF806B7047AF
:10223000F8B5050034352B7804000220012B38D086
:102240000138287023689A68024233D1A16B1C4A76
:1022500011400632FF320A430321A263DE68DA68C6
:102260008A43DA608022996812060A439A60FFF76F
:102270004DFD070023689A68002A0CDB0321DA6809
:102280000E40164302220020DE60A36B9343A3633B
:1022900000232B700DE0FFF739FDC01B0228E9D9A0
:1022A0001223A26B01209A43023B1343A363002332
:1022B0002B70F8BD2023A26B1343A363E8E7C0464D
:1022C000FDFEFFFF10B5FF2403220B00210002409A
:1022D000D20091409B012340C943934000280ADB70
:1022E000C0240B4A800880008018A40002590A40CC
:1022F0001343035110BD0F2210400838054A8008CF
:1023000080008018C26911401943C161F2E7C046DC
:1023100000E100E000ED00E0002805DB1F2318408D
:102320001E3B8340014A13607047C04600E100E055
:10233000002809DB1F2318401E3B8340034AD36754
:10234000BFF34F8FBFF36F8F7047C04604E100E0CB
:102350008022431E5204012093420DD2C021074A1D
:1023600007485360036A09061B021B0A0B430362FA
:1023700000200723906013607047C04610E000E023
:1023800000ED00E0002807DB1F23C02218401E3BA1
:102390008340024952008B507047C04600E100E084
:1023A000704710B5FFF7FCFF10BD000010B5841C8E
:1023B000E37F022B03D004238363012010BD0E2191
:1023C000026813688B4313600123116899431160FD
:1023D0000B498A4203D00B4B9A420DD110230A4A73
:1023E000536001230022E377C318DA77436B9342EB
:1023F00000D098470020E1E780235B00EFE7C0466C
:10240000080002401C00024000000240044B10B5CE
:10241000DA68104202D0D86001F060FE10BDC046FC
:102420000018024030B587B001A90A00224B31CB19
:1024300031C211CB11C2214B38229C6820001040C0
:1024400014420ED107241A685B68D20A5B0B224043
:102450002340042B00D8180080000858D04007B053
:1024600030BD9868104008281FD098681040102888
:102470000FD1DC680F3822000240044217D15B689C
:102480001B045B0F042B00D81A00920088584000F0
:10249000E5E79968114020290BD09B680020134084
:1024A000182BDCD1FA20C001D9E70548D7E7054849
:1024B000D5E780200002D2E708560008001002404D
:1024C00000127A000024F400F0B5040085B0002862
:1024D00002D1012005B0F0BD01220368134210D1E2
:1024E00023689B0765D423681B0700D5DAE02368BF
:1024F0005B0700D50BE1636A002B00D0A4E100204C
:10250000E8E73821C44DAB680B40E968102B22D1B5
:10251000114222D16368002B33D0A1680029D8D0A2
:102520000C202A6982430A432A6180225202934284
:102530001AD12A6813432B60FFF7E8FB80270600B7
:10254000BF022B683B42CBD1FFF7E0FB801B642826
:10255000F7D90320BEE7082BDCD12B689B03BFD53E
:102560006368002BBCD1B4E7A021C9028B4208D11B
:1025700080232968DB020B432B602B681A432A60F7
:10258000DAE72A68A5490A402A602A68A4490A406D
:102590002A60002BD0D1FFF7B9FB80270600BF02CD
:1025A0002B683B429CD0FFF7B1FB801B6428F7D916
:1025B000CFE73823984DAE681E40EB68102E1ED131
:1025C000DB071ED56369002B59D02B68954A8027FD
:1025D0001340A269FF0013432B6080232A685B002D
:1025E00013432B60FFF792FB06002B683B4240D061
:1025F0006B68E2691B0C1B0413436B6073E7002ECE
:10260000E0D12B685B0503D56369002B00D160E73F
:102610006B68E2691B0C1B0413436B60FFF776FBCE
:10262000070080222B68D20013421CD0002E12D14A
:102630002B687C4A1340A26913432B60FFF7F2FE1C
:10264000AB6879491B051B0F9B005B581F210B4092
:10265000D840764A1060764B1868FFF717FB0028C1
:1026600000D140E735E7FFF751FBC01B0228D8D95E
:102670006FE7FFF74BFB801B0228B6D969E72B6891
:102680006C4A802713402B60FFF740FB0600FF00D9
:102690002B683B4200D126E7FFF738FB801B02285E
:1026A000F6D956E738225C4DAB681340182B08D199
:1026B0002B6E9B0700D41AE7236A002B00D016E785
:1026C00007E7226A0123002A10D02A6E022713434B
:1026D0002B66FFF71BFB06002B6E3B4200D006E784
:1026E000FFF714FB801B0228F6D932E72A6E022777
:1026F0009A432A66FFF70AFB06002B6E3B4200D185
:10270000F5E6FFF703FB801B0228F6D921E7382204
:10271000414DAB681340202B08D1EB6D9B0700D4D3
:10272000E9E6E368002B00D0E5E6D2E6802200214E
:10273000EB6B52050091134208D1EB6B1343EB6333
:10274000EB6B13400393039B0123009380273A4EC6
:102750007F0033683B421AD0E368002B27D1012168
:10276000EA6D8A43EA65EA6D03318A43EA65002B24
:102770002ED1FFF7CBFA02270600EB6D3B422ED09D
:10278000FFF7C4FA2D4B801B9842F6D9E1E6336877
:102790003B433360FFF7BAFA019033683B42DBD129
:1027A000FFF7B4FA019BC01A0228F6D9D1E6C0227D
:1027B00021699202224811421AD18022296992028B
:1027C00001400A432A61012B15D1EA6D1343EB65E1
:1027D000FFF79CFA02270600EB6D3B4214D0009BEA
:1027E000012B00D087E6EB6B164A1340EB6382E6C1
:1027F0002A690240E5E7052BB1D1EA6D013B13439D
:10280000EB65EA6D0123E1E7FFF780FA0B4B801BD4
:102810009842E1D99DE6C04600100240FFFFFEFF4E
:10282000FFFFFBFFFFC7FFFF8859000830000020B3
:102830001C000020FFFEFFFF007000408813000016
:10284000FFFFFCFFFFFFFFEF3821324DAA680A406F
:10285000102A52D0304A022B39D12B6880271340DE
:102860002B60FFF753FA0600BF042B683B4228D1C8
:10287000A26A012A00D12CE6002A09D16B682749F7
:102880001B045B0F9B0026485B58834200D820E660
:102890000121EB6880268B431343EB6080232A6879
:1028A0005B0413432B60FFF731FA0400B6042B6876
:1028B000334200D023E6FFF729FA001B0228F6D99D
:1028C00047E6FFF723FA801B0228CED941E62B68A2
:1028D0008026134001222B60EB68B6049343EB6023
:1028E000FFF714FA04002B68334200D107E6FFF724
:1028F0000DFA001B0228F6D92BE6012B00D1E8E5E2
:102900000123E8681840A36AC01A431E9841C0B268
:10291000E0E5C04600100240FFFFFFFE48590008F6
:10292000FF23F400F7B504000E00002801D10120B8
:10293000FEBD0127474D2B683B408B4228D32268C0
:10294000930739D4D20746D401272B683B40B342C2
:1029500008D92B68BB432B60FFF7D8F906002B681A
:102960003B4269D123683C4D5B076CD4FFF75AFDAD
:10297000AB683A491B051B0F9B005B581F210B409E
:10298000D840374A374B10601868FFF77FF9CFE718
:102990002B68BB430B432B60FFF7B8F901902B6802
:1029A0003B40B342CBD0FFF7B1F9019BC01A2E4B8D
:1029B0009842F4D90320BBE72749530704D5E02305
:1029C0008868DB0103438B608B6828480340A0685C
:1029D00003438B60B6E760681F4F04282AD8FEF7D0
:1029E000B1FA1D03212925003B689B039FD50722CF
:1029F000BB6893430343BB60FFF788F9019038231A
:102A0000BA681A406368DB009A429DD0FFF77EF9EE
:102A1000019BC01A144B9842F1D9CBE73B685B0588
:102A2000E5D484E73B689B01E1D480E7FB6D9B071D
:102A3000DDD47CE73B6EFAE7FFF768F90A4B801BB1
:102A400098428CD9B6E7AB68094A1340E268134351
:102A5000AB608BE70020024000100240885900085C
:102A6000300000201C00002088130000FFF0FFFF52
:102A7000FF8FFFFF064B07499B68074A5B045B0F0C
:102A80009B005B581F2110680B40D8407047C04620
:102A900000100240685900083000002010B50724DB
:102AA0000A4B04609A682240F02442609A6824012C
:102AB00022408260E0229B68D20113400122C36061
:102AC000034B1B6813400B6010BDC0460010024052
:102AD000002002400122036A70B593430362036A37
:102AE00044688569723295430A681543022293430C
:102AF0008A6813430D4A904205D00D4A904202D095
:102B00000C4A90420BD108229343CA688E69134342
:102B100004229343084A22404C69344314434A68D0
:102B2000446085614263036270BDC046002C014071
:102B30000044014000480140FFFCFFFF036A174AC0
:102B400070B5134003627323056A4268C4699C43ED
:102B50000B681C43124B1D408B681B022B43114D0D
:102B6000A8420ED1104D1D40CB681B022B430F4DC8
:102B70002B400F4D8E6915404A69324312012A439A
:102B800005E00C4DA842F4D00B4DA842F1D04260B4
:102B90004A68C461C263036270BDC046FFFEFFFFA6
:102BA000FFFDFFFF002C0140FFF7FFFFFFFBFFFFD2
:102BB000FFCFFFFF0044014000480140036A124A72
:102BC00030B513400362046A104D4368C2692A405D
:102BD0000D682D0215430E4A14408A6812032243E1
:102BE0000C4CA04205D00C4CA04202D00B4CA04291
:102BF00004D10B4C1C404B699B01234343604B6841
:102C0000C5610364026230BDFFEFFFFFFF8CFFFF71
:102C1000FFDFFFFF002C014000440140004801405D
:102C2000FFBFFFFF010002233D310B700368072047
:102C30009A680240062A03D00122186802431A60EB
:102C4000012300200B707047020030B502243C3293
:102C5000157803002000012D08D018003D300470C5
:102C60001B685961012303700020107030BD70474C
:102C700070470222036810B51969040011420ED092
:102C8000D96811420BD0053A1A61043202779B6968
:102C90009B0700D179E001F032F80023237704226A
:102CA00023681969114210D0D96811420DD0093A30
:102CB0001A61073222779A69C0239B0020001A42CA
:102CC00069D001F01CF800232377082223681969D2
:102CD00011420ED0D96811420BD0113A1A610D324F
:102CE0002277DB6920009B075BD001F008F8002306
:102CF0002377102223681969114210D0D968114234
:102D00000DD0213A1A6119322277DA69C0239B006B
:102D100020001A424BD000F0F2FF0023237701225B
:102D200023681969114207D0D968114204D0033AC7
:102D300020001A6100F0B8FF80222368196911424F
:102D400008D0D968114205D0023AFF3A20001A6132
:102D500000F091FA402223681969114207D0D9681E
:102D6000114204D0813A20001A61FFF781FF20222E
:102D700023681969114207D0D968114204D0413A39
:102D800020001A6100F076FA10BD00F0B4FF2000B8
:102D9000FFF76DFF81E700F0AEFF2000FFF767FF50
:102DA00091E700F0A8FF2000FFF761FF9FE700F028
:102DB000A2FF2000FFF75BFFAFE7000010B5184C43
:102DC0000368A0420AD0174A904207D0164A9042A0
:102DD00009D1164A1A40CB6813430AE07022934384
:102DE0004A681343F5E7124A9042F2D0114A9042E2
:102DF000EFD0802293434A69134303608B68C36218
:102E00000B688362A04205D0094B984202D0094B5F
:102E1000984201D10B6903630123436110BDC04691
:102E2000002C01400004004000200040FFFCFFFF98
:102E3000004401400048014070B504000120002C0E
:102E400014D025003D352B78DAB2002B05D12300B4
:102E50003C3320001A7001F0C9FB02232B7020685C
:102E6000211DFFF7ABFF012300202B7070BD000078
:102E70001022036A70B593430362056A154C4268D9
:102E8000836923400C6824021C4320239D438B68E4
:102E90001B012B43104DA8420FD18025AB431E00D0
:102EA000CB68403D1B013343AB430C4D8E6915404D
:102EB0004A69324392002A4305E0094DA842F4D002
:102EC000084DA842F1D042604A688461826303627F
:102ED00070BDC046FF8CFFFF002C0140FFF3FFFFD9
:102EE000004401400048014070B5040002263C3413
:102EF000257803003000012D0DD01D003D352E70CA
:102F0000082A17D008D8002A0CD0042A0ED0012392
:102F100000202B70207070BD0C2AF8D11868FFF7C4
:102F20004DFEF4E71868FFF7D5FDF0E71868FFF7E6
:102F30009FFFECE71868FFF701FEE8E7F7B5070029
:102F4000150002223C370C003978030010000129DB
:102F500011D00121397019003D3101910A70082DFD
:102F600044D009D8002D1DD0042D2DD001230020E0
:102F7000019A13703870FEBD0C2DF7D11D68210029
:102F80002800FFF71BFE8023EA691B011343EB6156
:102F9000EB691F4A1340EB612369EA691B02134383
:102FA000EB61E3E71D6821002800FFF793FD08238C
:102FB000AA6913430422AB61AB699343AB61AB696C
:102FC00022691343AB61D1E71D6821002800FFF798
:102FD0004FFF8023AA691B011343AB61AB690C4A05
:102FE0001340AB612369AA691B02EAE71E6821004E
:102FF0003000FFF7A3FD0422F3691D43F561F36977
:103000009343F361F36922691343F361AEE7C0466A
:10301000FFFBFFFFF0B501261500026A0D4FB2431A
:1030200002628269046AB84210D00B4FB8420DD0D8
:103030003243F025AA431B010F352B4013430A22CC
:1030400094431140214383610162F0BD0326B243E2
:103050002A43EEE7002C014000040040F7B51700BA
:10306000020002233C320E001178050018000129ED
:103070001AD00121537011702C6831687268F3689E
:10308000002F12D12000FFF7C5FF0C22A369934344
:10309000A361A369B2681343A3612B00012200203E
:1030A0003D333C351A702870FEBDB068266A019029
:1030B000042F1ED10C37BE432662A7692E48120288
:1030C00007403A432D4F1B073A401B0C1343A022E5
:1030D000266A0901964311403143A3612162A36925
:1030E000274A1340A361019AA36910021843A06103
:1030F000D3E7082F1FD10320224F1B013E40266239
:10310000E669276A86431643F02296430F3213403E
:103110001D4A09021740A022120111400C2233431C
:103120003943E3612162E3699343E361E369019A0F
:103130001343E361B1E7154F0F483E402662E7694C
:10314000120207403A430D4F1B073A401B0C266AF8
:1031500013430F4A09031640802292011140314364
:10316000E3612162E369064A1340E361019AE3697E
:1031700010021843E06190E7FFFCFFFFFF0FFFFF25
:10318000FFF3FFFFFFFEFFFFFFF5FFFFFFEFFFFF76
:10319000FFDFFFFF1F2310B5012419408C408A4038
:1031A000036AA3430362036A1A43026210BD00006C
:1031B00010B5046801222000FFF7ECFF0C4B9C4285
:1031C00005D00C4B9C4202D00B4B9C4204D1802377
:1031D000626C1B02134363640722A3681340062B2F
:1031E00003D00123226813432360002010BDC04692
:1031F000002C0140004401400048014010B5FFF799
:10320000D7FF10BD10B5046801222000FFF7C2FFF0
:103210000722A3681340062B03D00123226813431F
:103220002360002010BD1F2310B5042419408C40DA
:103230008A40036AA3430362036A1A43026210BD11
:1032400010B5046804222000FFF7EDFF8023626CB4
:103250001B02134307226364A3681340062B03D0A9
:103260000123226813432360002010BD10B5FFF72F
:10327000E7FF10BD7047704703680649DA684630BB
:103280000A40DA605A692331FF318A435A612023A8
:1032900003707047DFFEFFFF70B5050045352C78E1
:1032A00003000220202C17D10138002914D0002A55
:1032B00012D01C00443426780130012E0CD05A86DE
:1032C0001A8600202122D96298642A7020701A6818
:1032D0008023D1680B43D36070BDF0B5060046363D
:1032E00035780300ECB20220202D1ED101380029D0
:1032F0001BD0002A19D01D0044352F780130012F32
:1033000013D05A871A87002022229864596332709A
:1033100028701B68DE32D9680A43DA6001225969D5
:103320000A435A61DA681443DC60F0BD010070B5ED
:1033300046310B78222B26D1802485680268436BA6
:103340006401A54220D10469002C1DD15268D20528
:10335000D20D1A8002334363438F013B9BB24387F4
:10336000002B10D1202403680A4DDA68A243DA60EA
:10337000DA682A40DA605A690335FF35AA435A6190
:103380000C7001F0D1F970BD52685C1C44631A7076
:10339000E2E7C046FFFEFFFFF8B5036804001A68C5
:1033A000D9685869150708D1202002425DD0014232
:1033B0005BD02000FFF7BAFFF8BD9026012576000C
:1033C00028400E40064350D02A4204D0CB0502D5F7
:1033D000A36C1D43A564530705D5002803D0022321
:1033E000A56C2B43A364930705D5002803D00423C1
:1033F000A56C2B43A36408231A4204D0002802D0F2
:10340000A06C0343A364A36C002BD5D020231A42E5
:1034100004D0194202D02000FFF788FF402708227D
:10342000266820007569A36C3D4013401D4318D0E9
:10343000FFF722FF73693B420FD07369206CBB43D7
:103440007361002809D0284B4363FEF7AFFF0028C3
:10345000B2D0206C436B9847AEE7200001F06EF9C4
:10346000AAE701F06BF9A564A6E78020024229D003
:10347000014227D0220045321278212A9CD1802196
:10348000A068E26A4901884218D12169002915D152
:1034900011880232C905C90D5960E262628E013A93
:1034A00092B26286002A00D086E78021DA688A43D9
:1034B000DA604022D9680A43DA607DE71178013288
:1034C0005960EAE74020024200D175E7014200D18D
:1034D00072E7DA688243DA60230020224533200055
:1034E0001A7001F026F967E7ED340008002310B5E3
:1034F000406A4387438601F021F910BD010010B5F1
:1035000044310A7803000220012A0ED01800242238
:10351000453002701C680C23E2689A43043B134355
:10352000E360202303700020087010BD010010B577
:1035300044310A7803000220012A0ED01800242208
:10354000453002701C680C23E2689A43083B134321
:10355000E360202303700020087010BD0300453392
:1035600046301B78007818437047836810B5040014
:10357000002B05D00322010098470023A360E360DD
:1035800010BD836810B50400002B02D00322010097
:103590009847200010BD4B1E032B02D8880004382A
:1035A000704701204042FBE70139435C002B05D006
:1035B000054B022905D90120404204E00329FAD82D
:1035C000024B4900C85A704700590008F8580008D3
:1035D0000139032902D8034B585C7047012040424F
:1035E000FBE7C046F45800080139032902D8034B11
:1035F0005856704701204042FBE7C046F05800088B
:10360000F7B504000E00FFF7C6FF0500431C00D10C
:10361000FEE731002000FFF7DBFF030001900133DC
:1036200000D1FEE731002000FFF7BEFF013000D1DE
:10363000FEE737015837E719BB68002B07D0019B1D
:103640002269DB431361D36801990B43D360731E76
:103650005A00A21890880C2810D8FDF773FC444437
:10366000131313070713133E3E3E1F002000E35CB5
:1036700029001030002B02D0FFF7F8FDF7BDFFF74F
:10368000BDFDFBE72000E35C29001030002B02D0D9
:10369000FFF7D6FDF2E7FFF78BFDEFE720002900EB
:1036A0001030FFF7AFFD31002000FFF79DFF010054
:1036B00006002000FFF778FF25692B6A1843BB68D6
:1036C0002862002BDAD031002000FFF781FFC343CE
:1036D0002B61EB681843E860D0E720002900103028
:1036E000FFF790FDCAE723691B68DB07C6D42000FB
:1036F0001030FFF797FAC1E7036E10B50400002BF6
:103700000AD00222036952421A61D96803320A437D
:10371000DA601030FFF786FA20000121FFF770FF12
:1037200020000221FFF76CFF20000321FFF768FF54
:1037300004212000FFF764FF10BD0000F0B591B038
:1037400004000E001F000192FFF725FF0500431C37
:1037500000D1FEE74D4B0993236900281BD15B6B19
:1037600001220A9300230692721E0392019A0B9380
:103770000D930E930C930F930593079308930C2AC4
:103780002AD81000FDF7DEFB43112142494B545665
:10379000585C5A636500042801D19B6BE0E7082858
:1037A00001D1DB6BDCE71B6CDAE77600A6197388C6
:1037B000002B08D0002320002A007380103009A9B4
:1037C0000993FFF791FB11B0F0BD10232A00099374
:1037D00009A9E018FFF788FB039B019A5B00E31837
:1037E0009A807B1CEFD0380000F02AFFA8424CD111
:1037F000274D3800290000F0B5FD2900380000F001
:10380000F3FD039BC002C00FE054DCE7202320003F
:103810002A00099309A91030DCE73023F7E7602379
:1038200020002A0009A910300993FFF787FBD3E78E
:103830007023F5E75023EAE74023E8E702230593E6
:1038400020002A0005A91030FFF708FCC4E70A236E
:10385000F5E7230010332A00180005A90293FFF7AB
:10386000FDFB31002000FFF7BFFE0C22431E5B0072
:10387000E3189A8002230100200005930693FFF7C6
:103880008AFE05A902000298DEE7FEE7FFFF0000BE
:10389000C05B000870B5DCB2262C09D8E0250F4EBD
:1038A000A400ED001D40A3592B43FFF747FF70BD57
:1038B000C0251D40C02D0ED1C92C0CD83F24084E68
:1038C0001C40A400A459E026044DA4006459F6004D
:1038D00033402343E9E701235B42E6E7345E000817
:1038E0000C5E0008013903000020032902D84900BA
:1038F0005B189888704710B501211030FFF7A4F9C4
:1039000010BD0369186801231840704770B50500A1
:103910000C00FFF7F6FF00280FD10126E3683342C1
:103920000CD0E3682800B343E360FFF7E4FF022311
:103930005B422361E3681E43E66070BD2800FFF729
:10394000DAFFFAE70D4A03000020934214D00C4A34
:103950000130934210D00B4A013093420CD00A4AF6
:103960000130934208D0094A9B185A4253415842A9
:10397000074B1840074BC0187047C046002C014049
:1039800000040040002000400044014000B8FEBF99
:103990000500FFFFFFFF000070B504000069FFF79E
:1039A000D1FF05002000103000F090FD0022084BF0
:1039B000AD00EA5026002500E260A8355836B54231
:1039C00004D0103D2800FFF7DCFDF8E7200070BDB3
:1039D0007C010020F7B5040008000D00FFF7B2FFDE
:1039E0001F4FB84200D1FEE72369002B00D0FEE74D
:1039F00021001C4A80000C31815022002C322561AC
:103A000026001370203223636363A363E36323649C
:103A10006364A3641370537003221036636530002F
:103A2000E460226500F0FEFC23002500A833583531
:103A300001932800FFF799FD019B10359D42F8D1B5
:103A4000002323606360A3606361A36123626362F8
:103A500080333000E761A362FFF7EEF9F7BDC0469F
:103A6000FFFF00007C01002010B586B0040010228A
:103A7000002102A801F0DEFC002302A801A90193A5
:103A8000FFF70CF8206900F0D6FD012815D1059C40
:103A9000FEF7F0FFC023DB019C4206D007D880224E
:103AA000064BD2012340934205D1400003E0E023BE
:103AB000DB019C42F9D006B010BDFEE7FFEFFFFF2F
:103AC00070B505000C00012A0CD0022A18D0230082
:103AD0005A1E93412969E41A2800CC62EC61FFF771
:103AE00015FF70BDFFF7C0FF0849FDF735FA6043C9
:103AF0002B69010C99620131FDF72EFA0400E6E70B
:103B0000FFF7B2FF2100FDF727FAF1E740420F006F
:103B1000F7B5060014001D00FFF73DFD33690700EF
:103B20009A6A411C00D1FEE701320192822D29D010
:103B300021D8102D11D8002D2AD131691D4ACB6A08
:103B4000934203D10132944200D11C00002F26D1B0
:103B50004C633000FFF7DAFEF7BD812DEDD1300068
:103B6000FFF782FF1449FDF7F7F960430199FDF76C
:103B7000F3F90400E1E7832DDFD1D86A6421013035
:103B80006043F4E73000FFF76FFF01996143EEE710
:103B90000121A940D86A013901306043E7E7042FC9
:103BA00001D18C63D5E7082F01D1CC63D1E70C6438
:103BB000CFE7C046FFFF000040420F00044B10B5A6
:103BC0001868002802D00430FFF753F810BDC04633
:103BD0007C01002010B5FFF7F1FF10BD044B10B5BC
:103BE0005868002802D00430FFF743F810BDC046E3
:103BF0007C010020044B10B59868002802D00430E6
:103C0000FFF737F810BDC0467C010020044B10B50B
:103C1000D868002802D00430FFF72BF810BDC0464A
:103C20007C010020044B10B51869002802D0043034
:103C3000FFF71FF810BDC0467C01002010B50C2214
:103C40000021040001F0F6FB00232000E36010BD1A
:103C5000F8B50500070004000E005835A837280005
:103C60001035FFF7EBFFBD42F9D1002331002000F2
:103C70002361FFF7AFFE2000F8BD836810B5002B6D
:103C800001D101F007FBC368984710BD10B50028AB
:103C900000D1FEE700F0C4FB0068036E002B02D0E9
:103CA0005830FFF7EAFF10BD10B5FFF7EFFF10BD6A
:103CB000030010B5002800D1FEE7007F0138072877
:103CC00012D8FDF73FF90416111211111114012435
:103CD000180000F0A5FB240100685834001983681F
:103CE000002B01D0FFF7C9FF10BD0324F0E7042427
:103CF000EEE70224ECE710B5FFF7DAFF10BD10B5D0
:103D0000FFF7D6FF10BD0000030084B0012811D0DA
:103D100002281AD0002083420AD10121A020104B92
:103D2000C0055A6B0A435A635B6B0B400193019BBE
:103D300004B0704702210A4B0A485A6B0A435A637F
:103D40005B6B0B400293029BF2E72021044B064879
:103D50005A6B0A435A635B6B0B400393039BE7E781
:103D600000100240000400500014005010B5094932
:103D700000F03AFB0003C00E0C2808D8FDF7E2F86B
:103D80000808080808080808080807080800FEE7E7
:103D900010BDC046885D0008054B984203D0054B16
:103DA000984202D0FEE70B2070470C20FCE7C0468B
:103DB000011000000210000007B580220B4B5203D7
:103DC000196B0B4811431963196B01401963196C86
:103DD000114319641B6C13400193019B054B186838
:103DE000C30402D4044900F0BDFA07BD001002402C
:103DF000FFFFEFFF2C000020885D00088022094BA8
:103E00005203196B11431963186B07490840186373
:103E1000186B02431A631A6B0A401A631A6C0A4041
:103E20001A64704700100240FFFFEFFFF0B599B031
:103E3000402205000E0008A8002101F0FBFA0C2228
:103E4000002105A801F0F6FA02AB9F1D00233B807C
:103E50000493EB0471D5424B9D426ED8414B280030
:103E60000893FFF799FF0723040001931023082EFE
:103E700006D0083B0A2E03D01033062E00D00023B4
:103E800080229205099204220D92C2220A930023F5
:103E9000FF320F92A53AFF3A02A95218D377019A3E
:103EA0000B93139215AA0C930E93109312931693DF
:103EB000149313702C4B08A81D60FDF7B5FF002864
:103EC0004AD10594092C02D90B3C012C44D801237A
:103ED0000693019B05A908A80793FEF739F9002866
:103EE0003AD108A8FEF7A4F9002835D108A8FEF7B2
:103EF00087F8002830D10A2108A8FEF7C5F8002865
:103F00002AD108A8FEF792F9800504D508A8FEF783
:103F10001BF980B2388008A8FEF798F800281BD15A
:103F200008A8FEF713F8002816D1104A10491368A4
:103F30000B401360388880B20FE00E49280000F073
:103F40002BFA04A908902800FFF710FF0322089B12
:103F500004000192002B89D1002019B0F0BDC046A9
:103F600002100000002401402C000020082701401E
:103F7000FFFF3FFF885D0008F0B5234E85B001913B
:103F8000310003930292040000F006FAFFF7DAFC16
:103F90001E4F8500EB59002B0ED1A82000F028FC05
:103FA00031000090200000F0F7F901000098FFF7C1
:103FB0004FFEEB59009A1A60144B31005B592000F8
:103FC0001F6800F011FA0503ED0E29003800FFF715
:103FD00089FC0600052805D02300052229003800A9
:103FE000FFF7ACFB022238000199FFF769FD2900B9
:103FF0003800039B029AFFF78BFD052E02D0380094
:10400000FFF77AFB05B0F0BDC05B00087C01002023
:10401000F7B5134B06001900019300F0BDF9FFF747
:1040200091FC104F8400E359002B0DD1A82000F023
:10403000DFFB01990500300000F0AEF90100280017
:10404000FFF706FEE3591D603B591C68002C06D0A3
:104050002000FFF7A1FCA821200000F0CDFBF7BD58
:10406000C05B00087C01002010B5FDF74FFE10BDBD
:10407000704710B5FDF73EFEFEF793F9FFF7F8FF26
:1040800010BD704780210A4B4905DA6B82B00A43A4
:10409000DA63DA6B0A4001210092009A1A6C0A4333
:1040A0001A641B6C0B400193019B02B07047C04621
:1040B0000010024010B5FFF7E5FFFDF70FFEFFF718
:1040C000E0FF00F0C7FB10BD10B50C22002104007A
:1040D00001F0B0F90023E36010BD0000002310B52B
:1040E00001280BD114225A43064B101DC0188168B9
:1040F000002902D09B181B69984710BD0133400866
:10410000DBB2EDE79001002010B50120FEF77EF94B
:104110000220FEF77BF910BD10B50420FEF776F9FA
:104120000820FEF773F910BD70B50C241025A8B255
:10413000013CFEF76BF96D00002CF8D170BD00005A
:10414000F8B505252E4F2F4C38002570FFF7BCFF22
:104150002D4E25753000FFF7B7FF230001352833BA
:104160002A481D70FFF7B0FF230029483C331D701B
:10417000FFF7AAFF23000135503326481D70603732
:10418000FFF7A2FF24483D706036FFF79DFF2348EC
:104190003570FFF799FF230021488C331D70FFF71E
:1041A00093FF23001F48A0331D70FFF78DFF2300EE
:1041B0001D48B4331D70FFF787FF23001B48C83329
:1041C0001D70FFF781FF23001948DC331D70FFF7D6
:1041D0007BFF23002600F03316481D70FF36FFF7E3
:1041E00073FF15487571FFF76FFF14487576FFF779
:1041F0006BFF962312485B00E554FFF765FFF8BD9F
:104200009401002090010020A8010020BC010020A2
:10421000D0010020E4010020F80100200C02002061
:104220002002002034020020480200205C0200200E
:10423000700200208402002098020020AC020020BE
:10424000C002002010B5044C143C201DFFF799F962
:10425000024B9C42F8D110BDD002002090010020FA
:10426000431C04D100207047834204D00C310B68FA
:104270005A1CF9D1F6E70120F5E70000F7B5060072
:104280000C00431C00D1FEE7072502000D400F2162
:10429000334B0A40000992000840D7580195FFF7B8
:1042A00033FD8268030094463A00032065467A4352
:1042B0005043C14328439860019803283FD8FCF736
:1042C00041FE3F411A02032050431E68019D0E40EB
:1042D0003043013D1860012D04D8200734D55868BB
:1042E00038435860A406A40F012C30D0022C33D0E0
:1042F000DA680A402EE06004400E84467F2801D12F
:104300000220E1E736070DD50F26586A0500380A66
:10431000404340434643B5432E0065466843064349
:104320005E62EDE7186A0F26050010005043464311
:10433000B5432E006546684306431E62E0E7FEE78C
:104340000020C1E70120BFE75868B843C9E7D86833
:1043500001400A43DA60F7BDD86852000140F8E72F
:104360000859000810B5431C07D110BD834203D182
:104370008968FFF783FFF8E70C310B685A1CF5D109
:10438000FEE70B685A1C01D1002002E0834201D1F4
:10439000486870470C31F4E7002310B5421C02D086
:1043A000FFF7EFFF0300180010BD4B68002B02D190
:1043B0000120404202E0834201D1086870470C317D
:1043C000F3E710B5002802D0FFF7EFFF10BD012082
:1043D0004042FBE703000868421C02D0984201D12A
:1043E000886870470C31F6E710B5431C01D0FFF721
:1043F000F1FF10BD0749084A4B6812681B0C1B04EB
:10440000134380229201134380224B60034B120519
:104410009A60704700100240040FFF1F00ED00E09B
:10442000043870470368234A86B093420BD1802139
:10443000214B09011A6C0A431A641B6C0B4001934F
:10444000019B06B070471D4A934209D102211A4BC5
:10445000DA6B0A43DA63DB6B0B400293029BF0E7F3
:10446000174A93420AD18021134B09021A6C0A435E
:104470001A641B6C0B400393039BE2E7114A9342BF
:104480000AD180210C4B89021A6C0A431A641B6CF6
:104490000B400493049BD4E70B4A9342D1D1802173
:1044A000054BC9021A6C0A431A641B6C0B40059336
:1044B000059BC6E7002C01400010024000040040AC
:1044C0000020004000440140004801400368134AB6
:1044D000934205D1124A1349136C0B40136407E051
:1044E000114A934205D102210D4AD36B8B43D3630A
:1044F00070470E4A934203D1094A0D49136CECE709
:104500000C4A934203D1064A0B49136CE5E70B4A68
:104510009342EDD1024A0A49136CDEE7002C0140B8
:1045200000100240FFF7FFFF0004004000200040A1
:10453000FF7FFFFF00440140FFFFFDFF00480140F7
:10454000FFFFFBFF0300421C13D00E4A904213D022
:1045500007D80D4A904211D00C4A1320934207D03D
:10456000FEE70B4A90420BD00A4A16209342F7D13D
:1045700070470E204042FBE70D20F9E71020F7E7D7
:104580001520F5E7002C0140000400400020004009
:1045900000440140004801400300421C13D00E4A71
:1045A000904213D007D80D4A904211D00C4A1320E4
:1045B000934207D0FEE70B4A90420BD00A4A1620DE
:1045C0009342F7D170470E204042FBE70E20F9E7F7
:1045D0001020F7E71520F5E7002C0140000400400B
:1045E000002000400044014000480140F8B50400AC
:1045F000FFF718FF2068FFF7A5FF626C216CFDF73D
:1046000061FE2068FFF79EFFFDF786FE27683800F1
:10461000FFF7C2FF05003800FFF794FF854209D07D
:104620002800626C216CFDF74DFE2068FFF7B4FF97
:10463000FDF772FEF8BD0130431E9841C0B27047CD
:1046400010B50649FFF7D0FE0003C00E431E032B32
:1046500000D9FEE78000043810BDC046C05B0008EA
:1046600010B569300278064B9200D058FEF776FFFD
:1046700022231840223843425841C0B210BDC046E0
:10468000D002002010B569300278064B9200D05855
:10469000FEF764FF21231840213843425841C0B23D
:1046A00010BDC046D002002070B5040015000028DF
:1046B00017D006004165002068363056FDF738FEF9
:1046C00023007A331B88216F69342078C918054B81
:1046D0008000C058AAB2FEF7DFFD00203056FDF77B
:1046E0001BFE70BDD002002010B5002809D0C36D9C
:1046F000013306D169300278024B9200D058FEF7A0
:10470000FDFE10BDD002002010B5002809D0C36DF9
:10471000013306D169300278024B9200D058FEF77F
:1047200005FF10BDD002002010B50438036D984776
:1047300010BD10B50438436D984710BD7FB50368B0
:104740000122196804000D0004381540114211D0EF
:10475000002200921A6800925B680093009BFFF7AA
:104760007FFF002805D12100012220006631FEF7DD
:10477000B4FD7FBD196802220E001640114206D01A
:1047800001951A6801925B680193019BE7E719683C
:1047900004220D001540114206D002961A680292BA
:1047A0005B680293029BDAE71A681207D7D5039574
:1047B0001A6803925B680393039BD0E710B51B2034
:1047C000FDF7E0FD024B1868FEF7E6FD10BDC046A0
:1047D000D00200201C2010B5FDF7D4FD034B586813
:1047E000002801D0FEF7D8FD10BDC046D002002041
:1047F00010B500F059FD10BD10B500F05FFD10BD03
:1048000003000A4910B50868C318EFF30882934201
:1048100005D90C220120064B40421A6010BD054A02
:10482000054C121B9342F4D20B60F7E734000020D2
:10483000400500200010002000030000FEE70000FB
:1048400016220120014B40421A60704740050020AB
:104850000120704700B591B02822002106A800F081
:10486000E9FD0021102201A800F0E4FD02238022CE
:104870000593FE330A930E4B92011B6805A8DB04D7
:10488000DB0C13430C9301230E93FDF71DFE011E59
:1048900000D0FEE7072302900390049001A8019343
:1048A000FEF740F8002800D0FEE711B000BDC0467A
:1048B000040FFF1F10B5FBF75CFC10BD10B5FBF734
:1048C00058FC10BD10B5FBF754FC10BD10B500F03E
:1048D000EDF910BD10B500E000BFFCF7A5FCFCF73A
:1048E00045FF00F0D3F9FAE70D4885460D480E491B
:1048F0000E4A002302E0D458C4500433C4188C423A
:10490000F9D30B4A0B4C002301E013600432A2429E
:10491000FBD3FFF76FFD00F0F1FDFFF7DBFFFEE7D4
:1049200000100020000000209C000020105F000804
:104930009C00002048050020FEE7914208D008D9DD
:104940000123891A8B40984209D30130C8400138AD
:1049500070470028FCD00130521A9040F7E7002041
:10496000F6E70000431E1F2B07D8044B1860044BCA
:10497000102800DD102018607047FEE7400000207E
:104980003C000020014B18607047C04638000020F2
:1049900010B500F091F90023421C09D0054C2168A4
:1049A000FFF744FA044B21681A68FFF7C6FF0300BB
:1049B000180010BD440000204800002010B5CB2096
:1049C000FFF7E6FF01000248FCF7C6FA10BDC0463B
:1049D00050FB4A0010B504000800FFF7D9FF024958
:1049E0006043FCF7B9FA10BDFF0F000010B50400DA
:1049F000FFF7E4FF2100FFF7EDFF10BDF7B5C3B2ED
:104A00000500274A0191262B0BD9C0220240C02A5B
:104A100033D1C92B31D83F23224903409B00204A80
:104A20005B58E0249B009B58E4002C401C43631C13
:104A300023D020001C49FFF713FC1C4F061E1DD07D
:104A40000F2123090B401A489B001D5821402E00BE
:104A50000122CE40164202D18A402A431A50154BF9
:104A600039681D6801982A00FFF767FF12490200A4
:104A700009682000EBB2FFF77FFAF7BD012128009B
:104A800000F01CF8396808220198FFF756FF310042
:104A90007F2800D90121280000F06CF8EDE7C0461E
:104AA000345E00080C5E0008C05B00084000002077
:104AB000D80200203C00002038000020F7B5C3B227
:104AC00004000191262B29D8E02226499B005C583E
:104AD000D20002401443631C37D00F26250935400D
:104AE000214FAD00EB592640F340DB070DD52000E8
:104AF0001E49FFF7B5FB002802D02000FFF788FA17
:104B00000122B2407B5993437B51019B052B27D84F
:104B10001800FCF717FA16211B1D1F23C0220240A4
:104B2000C02A12D1C92B10D83F23114903409B0042
:104B30005B58E0210B4A9B009B58C9000C401C436A
:104B4000C9E700212000FFF799FBF7BD1021F9E725
:104B50002021F7E70321F5E70121F3E70921F1E738
:104B6000FEE7C046345E0008D8020020C05B0008A3
:104B70000C5E0008C3B210B5262B17D8E022174CE4
:104B80009B00D200024018591043030600221B0F5D
:104B9000022B02D8124A9B009A580F24114B204036
:104BA0008000C358002917D0936110BDC022024075
:104BB000C02A0ED1C92B0CD83F230B4C03409B00BD
:104BC0001B59E024054A9B009B58E40020401843F1
:104BD000DBE701204042D8E79362E6E7345E000855
:104BE00020000020085900080C5E0008C3B2262BE4
:104BF0000ED8E02218499B00D200024058581043BA
:104C00000F2103090B40022B18D900231B69FFDE7B
:104C1000C0220240C02A0ED1C92B0CD83F230F4915
:104C200003409B005B58E0210B4A9B009B58C90046
:104C300008401843E4E701204042E1E7084A9B00AE
:104C40009A580840074B8000C35810691840C01A92
:104C5000434258417047C046345E00080C5E00086D
:104C6000200000200859000810B5FFF7FDF910BD1D
:104C700070B5041E09D0FFF7F7F9050000F01AF827
:104C8000FFF7F2F9401BA042F8D370BD054B10B5F9
:104C9000002B06D0044800F081F8002801D000E085
:104CA00000BF10BD00000000E402002010B5FFF7B7
:104CB00001FA10BD704700000300FF201900F0B595
:104CC0000140092919D8E022304C8D002C59D2001E
:104CD0001A4022431040262822D9C0241440C02C58
:104CE00001D1C92835D9CA2B4ED0CB3B5A425341AA
:104CF0005842274B1840013823E0C0241C40C02CE8
:104D0000F1D1C929EFD83F251F00E0221F4E2F40C7
:104D1000BF00BE59D2001A4032431040262811D895
:104D2000E0241C4A80008058184DE40009291CD951
:104D3000C0212200154D1940C02922D01043421C29
:104D4000D1D0F0BD1440C02CCDD1C928CBD82A4039
:104D500001E03F200240E0240C4D920052590D48E2
:104D600092001058E400092906D81A008900495910
:104D700022400A432240E1E7C02122001940C02915
:104D8000DCD181391940F0E70348DAE70C5E00080E
:104D900003100000345E0008011000000200FE3223
:104DA000D38950894033181A3F23184070470300B5
:104DB000FE33DA895B899A4203D0FC304268D05CCA
:104DC000704701204042FBE7FE30037B008AC0B2FF
:104DD000834202D3C01A3F307047C01A0138FBE744
:104DE00013B56B460268D971073354681900012264
:104DF000A04716BD030010B57A331A88C16F521848
:104E00003F210A401A800200763212881C88002155
:104E1000A24217D01C88403219880B4B121B89B252
:104E20001A4004D54023013A5B421A430132402321
:104E30005B1A9A4200D91A000449C267FFF734FC92
:104E400001214942080010BD3F000080F54D0008D7
:104E5000F0B50400036885B09B6801910392984700
:104E600023004025FE339B890700ED1A012323749C
:104E70002300F0331B6801330AD12300FF335A7D2E
:104E8000002A05D0002220005A759430FFF72CFC30
:104E9000236820009B6898470028F9D0039EB542FC
:104EA00029D3BE4227D823002700FE3302939B89D3
:104EB000FC37B8689A19C018402A34D832000199D2
:104EC00000F042FB3500029B3F229B899B19260084
:104ED0001340029A943630009381FFF7D3FB0028E9
:104EE00006D1FC342A00300015496561FFF7DCFB70
:104EF000039805B0F0BDBD4200D93D0023682A00EB
:104F00005B68019920009847019B20005B19019381
:104F10002368761B9B6898472300FE339D894023B6
:104F200007005D1BBBE74025ED1A2A00019900F040
:104F30000BFB019BB868721B591900F005FBC2E717
:104F4000F54D0008037C002B04D0FE308289038AD3
:104F50009A42FCD1704710B5914201D101214942DA
:104F60000400F03421600100EC310A600200F432E8
:104F700013600300029AF8331A600200E73BFC3228
:104F80005360002351300B849060D3604B8410BD7C
:104F9000CBB210B5262B09D8E0220F4C9B00D200D3
:104FA0000A4019591143F030016010BDC0220A4077
:104FB000C02A0ED1C92B0CD83F23084C0B409B00B4
:104FC0001B59E024044A9B009B58E40021401943EC
:104FD000E9E701214942E6E7345E00080C5E00087B
:104FE000CBB210B5262B09D8E0220F4C9B00D20083
:104FF0000A4019591143EC30016010BDC0220A402B
:10500000C02A0ED1C92B0CD83F23084C0B409B0063
:105010001B59E024044A9B009B58E400214019439B
:10502000E9E701214942E6E7345E00080C5E00082A
:105030000023F0B54360FA239B008360204B0600F9
:1050400003600123F0365B4233601E4B85B00400E1
:105050000D00039298421AD1C3212000FFF798FF58
:10506000C2212000FFF7BCFF0123039A5B42012A03
:1050700000D13360220000930123EC32200012683B
:1050800031685B42FFF767FF200005B0F0BD0E4AB4
:105090000E4F92680E4B92003900D058FFF77CF902
:1050A0008542D9D00B492800FFF78BF939003060D1
:1050B0002800FFF786F92300EC331860D4E7C046D8
:1050C000D05E0008E40200200C5E0008C45A00080C
:1050D000345E0008C85900080300F0331B6810B59F
:1050E000040001330DD10368DB6898472300FF33C8
:1050F0005A7D002A05D1200001325A759430FFF7FD
:1051000003FB10BD10B50400FFF7E6FF2200FE32DE
:10511000D1895389994207D0FC346168C85C3F212A
:1051200001330B40538110BD01204042FBE70000DA
:1051300010B5002202480349FFF77AFF10BDC046B0
:10514000E40200200038014010B50400FFF78CFD98
:10515000E060236820005B699847002808DAFFF7C1
:1051600083FDE368C01AA3689842F2D3012040424D
:1051700010BDF8B506000F0015000024AC4201D1A7
:105180002000F8BD3000FFF7DFFF0028F8DB3855BE
:105190000134F3E7F7B50F0016001D001C1E019047
:1051A0000BD000240198FFF7CFFF002805DBB842A1
:1051B00003D030550134A542F4D12000FEBD0000DB
:1051C00041024200C30F490A0020120E7E2A03DD6D
:1051D0009D2A02DD094A9818704780200004014387
:1051E000952A07DC9620821AD1404842002BF3D141
:1051F0000800F1E7963A9140F7E7C046FFFFFF7FCE
:1052000070B5002813D0C317C5185D40C40F28001F
:10521000FBF768FF9E2301001B1A962B0FDC082862
:1052200031D008398D406D026D0AD8B202E00024F9
:1052300000200025C0052843E407204370BD992BBA
:1052400015DC421F95402A001500114805405607FD
:1052500009D00F263240042A05D004356A0102D550
:105260009F2305405B1AAD016D0AD8B2E2E7052223
:10527000121A2800D0400A001B3295402A00551E01
:10528000AA410243E0E76D0296206D0AD2E7C046CC
:10529000FFFFFFFB10B500F000F8062010B500F08E
:1052A000FBF80120FFF7CAFA10B5034B010018689C
:1052B00000F030F810BDC0464C00002010B5034B84
:1052C0000100186800F04AF910BDC0464C000020EB
:1052D00070B50F4E0D0031680400002902D100F0B6
:1052E000FBF830602900200000F0F6F8431C03D1E1
:1052F00001256D42280070BD0323C51C9D43A842B3
:10530000F8D0291A200000F0E7F80130F2D1EFE7D9
:1053100000040020F7B50322CB1C9343083305009B
:105320001F000C2B34D20C27B94233D8280000F0D0
:1053300071F8374E33681C00002C2FD1390028003B
:10534000FFF7C6FF0400431C5FD134680094009B44
:10535000002B4AD1002C52D023682800E318009972
:10536000019300F0B9F8019B834248D123682800DB
:10537000FF1A3900FFF7ACFF013040D02368DB197A
:10538000236033685A68002A33D1009B336019E0E8
:10539000002BC9DA0C232B600020FEBD2168C91B3D
:1053A00020D40B290AD9E2192760A34204D1326024
:1053B00063681160536005E05A60F9E76268A342D0
:1053C0000ED13260280000F02DF8200007220B30AB
:1053D000231D9043C21A9842DFD01B1AA350DCE76A
:1053E0005A60EFE723006468A6E7009C63680093B7
:1053F000ADE71A005B68A342FBD10023DAE70C2378
:1054000028002B6000F00EF8C6E70760DAE7C04618
:105410000404002010B5024800F094F810BDC04606
:105420004405002010B5024800F08DF810BDC046BC
:105430004405002003008218934200D17047197080
:105440000133F9E770B504000D001F2904D91623B4
:1054500003600120404270BDC36B002B04D08A0062
:105460009B181A68002A08D1200000F031F82A00A1
:105470000100200000F01AF8EDE7012A09D0511CC4
:1054800003D1162303600120E5E7002128001960FD
:1054900090470020DFE7000010B5034B01001868BB
:1054A000FFF7D0FF10BDC0464C000020002370B5B0
:1054B000064D0400080011002B60FFF7C1F9431CE2
:1054C00003D12B68002B00D0236070BD4005002065
:1054D00010B5FFF7BDF910BD002370B5064D0400EF
:1054E00008002B60FFF78CF9431C03D12B68002BBD
:1054F00000D0236070BDC0464005002070B5002676
:105500000C4C0D4D641BA410A64209D1002600F0DE
:105510006FF80A4C0A4D641BA410A64205D170BD59
:10552000B300EB5898470136EEE7B300EB589847C5
:105530000136F2E7F45E0008F45E0008085F000838
:10554000F45E000870477047002310B59A4200D1FE
:1055500010BDCC5CC4540133F8E7000070B5050001
:105560000C1E10D0043C2368002B00DAE41828003D
:10557000FFF750FF1D4A1368002B05D163601460CC
:105580002800FFF74FFF70BDA34208D920682118FB
:105590008B42F3D119685B6809182160EEE71A00A5
:1055A0005B68002B01D0A342F9D911685018A042C2
:1055B0000BD120680918501811608342E0D1186897
:1055C0005B68411811605360DAE7A04202D90C23EE
:1055D0002B60D5E7206821188B4203D119685B68DE
:1055E0000918216063605460CAE7C04604040020C3
:1055F000F8B5C046F8BC08BC9E467047F8B5C04632
:08560000F8BC08BC9E4670478F
:1056080000093D0000127A000024F4004086510190
:1056180000366E0113020000200200002C02000078
:105628003902000046020000540200006302000034
:1056380071020000800200008F0200009F0200003B
:10564800B0020000C0020000D2020000E302000025
:10565800F6020000080300001C03000030030000ED
:10566800440300005A0300006F0300008603000093
:105678009D030000B5030000CE030000E70300000F
:10568800010400001C040000380400005404000059
:105698007204000091040000B0040000D10400006E
:1056A800F204000014050000380500005D05000044
:1056B80083050000AB050000D3050000FD050000D0
:1056C800290600005606000084060000B406000003
:1056D800E5060000190700004E07000084070000D7
:1056E800BD070000F8070000340800007308000038
:1056F800B4080000F80800003D0900008509000012
:10570800D00900001E0A00006E0A0000C10A00004D
:10571800170B0000700B0000CD0B00002D0C0000D3
:10572800910C0000F80C0000630D0000D20D000081
:10573800460E0000BD0E00003A0F0000BB0F00002F
:1057480041100000CC1000005D110000F3110000B2
:105758009012000032130000DB1300008B140000CD
:105768004115000000160000C51600009317000040
:105778006918000048190000301A0000221B0000B8
:105788001E1C0000241D0000361E0000531F0000D0
:1057980079200000B2210000F52200004624000014
:1057A800A52500001027000093280000232A0000E8
:1057B800C42B0000782D0000402F00001C31000091
:1057C8000D33000015350000353700006D39000035
:1057D800C03B00002E3E0000B940000062430000BC
:1057E8002C46000017490000264C00005A4F0000C4
:1057F800B552000039560000EA590000C85D0000A3
:10580800D761000018660000906A0000406F000031
:105818002D74000059790000C77E00007C840000C8
:105828007C8A0000CB9000006C970000669E000008
:10583800BDA5000076AD0000CB16070026BE00000F
:105848002AC70000A9D00000ABDA000038E5000044
:1058580058F0000013FC00007308010082150100D5
:105868004B230100D9310100384101007651010074
:105878009F620100C3740100F18701003A9C010096
:10588800B1B1010068C8010075E00100ECF9010040
:10589800E61402007B310200C84F0200E86F0200E4
:1058A800FA91020020B602007EDC020039050300EE
:1058B8007A3003006E5E0300448F03002EC303009A
:1058C80062FA03001C3504009B73040022B604002E
:1058D800FAFC040072480500DE9805009AEE0500FF
:1058E800094A060093AB06000201040302040810EB
:1058F8000100100000010010040040000004000036
:105908000100000002000000040000000800000080
:10591800100000002000000040000000800000008F
:105928000001000000020000000400000008000060
:10593800001000000020000000400000008000006F
:1059480000093D0000127A000024F400408651014D
:1059580000366E0100093D0000093D0000093D00C8
:10596800000000000000000000000000000000002F
:105978000100000002000000030000000400000015
:10598800000000000000000000000000000000000F
:1059980000000000000000000000000000000000FF
:1059A80001000000020000000300000004000000E5
:1059B80006000000070000000800000009000000C1
:1059C8000300000000380140120100000800000038
:1059D80000380140120800000900000000380140AA
:1059E800120800000A0000000038014012010000FF
:1059F8000D00000000380140120800000F000000F0
:105A08000038014012010000120000000038014077
:105A180012000000170000000038014012000000CA
:105A280020000000003801401208000001000000BA
:105A38000044004012090000030000000044004038
:105A48001204000005000000004400401209000094
:105A58000800000000440040120900000A0000008D
:105A680000440040120400000F0000000044004001
:105A7800120400001200000000440040120300005D
:105A8800170000000044004012040000200000003D
:105A980000440040120400002100000000440040BF
:105AA8001209000022000000004400401204000017
:105AB800FFFFFFFF000000000000000002000000E0
:105AC80000380140120100000700000000380140C2
